:100000000C943F050C945C050C945C050C945C0509
:100010000C945C050C945C050C945C050C945C05DC
:100020000C945C050C945C050C945C050C945C05CC
:100030000C945C050C945C050C945C050C945C05BC
:100040000C945C050C94C20C0C945C050C945C053F
:100050000C945C05A877A6E0F7435A3585E27297C1
:100060008FB71A6287380D67C7BE4F3E2076378F2D
:1000700068B7A9263F2B10E3307E900E850A705199
:100080000386400D4FEB3ECCD18735BDF50B5ED0DE
:10009000F8F2D5E26C310CADFC21C378C106C24C3C
:1000A00055E64A3448111EDAE71A84A096A7E37F82
:1000B000AF639CFA235B79C89EBAB2C922124BB3D4
:1000C000A1B63249A2E189391066C5078F54EA9179
:1000D000CA3FF919F0D746BC281B61E82F6AAE9DCC
:1000E000F64E0914774DDB1F2E7B7CF143A300B83D
:1000F000138C85B9297588FDD2561C509741E53B74
:1001000060B5C064EE98D62D25A4AACD7DA883C67F
:10011000ABBE4499263CCE9FBFD3CB767A7E82017C
:100120008A9A801D0EB05CD43862F430E08E53B7EA
:100130000257ACA6520A6D9265172433457274B10A
:10014000B4F75DED2CFF47375A90BBDF2A1659955F
:10015000D9C4276773C768FEA5DD6B5F93D8EC052C
:100160003A8D6EFB3DA96936F394DEEF156F8B9BDC
:10017000080FDC81182004E471CFE92B425801A05C
:10018000A962D63F85A7B6D4FA15661709BD5D14D6
:10019000342659729154064FF8B05B7493998CF2DF
:1001A00045CDEA4EAD104AE5CAEEDFC66F9F888E98
:1001B00002CC08A877946D21B128E4397996607152
:1001C00081162EE678B9C4469A42AEB77C43B32274
:1001D0001A86C2323D2D9CD229E9639BD131385E0B
:1001E0001E3641BB03182B3EBF6861FC52C0DEE0E7
:1001F0000A58135A00BE1C900E5312FDE26EBACE7E
:100200002427447F87A3A1D55040E3F983F7C7A2F1
:1002100035C8DB19AB2F1125ED339E55E148AF737F
:1002200084DA2AAA51EB9D95B2CBE77080FE4C652B
:1002300004EFC5F1C33AB4F55F2389DD30A58BD354
:10024000F6DC4D64D7F08FEC56375CA40D07768A48
:100250002C0BB5D8C11FE83BF44B1B476C49677B9F
:1002600092CF757E20D97D3C977AD0056B0F1DFB10
:100270008298578DF36ABCACC9A6FFB8690C4C4D87
:1002800072075A49338DA2AB463D630DA097FFF02C
:10029000F5FAC0E9DB62E4E17443DC86182937F43F
:1002A00006E2ED6F90481E2D1DEA739454DF25F68B
:1002B0004727D91177C9841C5B5C5181A6223E2453
:1002C00096C88AEC827C09B8454A57BB2F50758E78
:1002D00061708C6CAFD0FDB41BAEDEFE3BB536BD9D
:1002E00055010E9C41565FB3260383BA134BCAC512
:1002F0000AF860A5B9C7C39832FB12F9A792AA6899
:10030000F3787E05202102E8BFF2B0598FD2CB8767
:100310006515F11AB230ADEE58A38B661F2CD75D70
:100320001985A8E6D36BA10C91936A5E0B79E3DD86
:10033000004F3C896E7169A9AC40E59928C6314EE1
:100340007ACD089E7DEF17FC88D8A46D4495D1B76F
:10035000D49BBE2A34642BCF2EEB38CE23E03A3F19
:10036000F77B9F1053BC526716E7807604C4B6C172
:10037000C27F9ADAD53942149DB10F35D6CCB9DA9D
:10038000380CA29C091F06B1B6FD1A692330C4DEE1
:1003900001D1F45829371C7DD5BFFFBDC8C9CF6531
:1003A000BE7B7897986708B32657F7FA40AD8E75ED
:1003B000A67CDB918B5199D4177A908DCE63CB4E6E
:1003C000A0AB183A5B507F2174C1BBB8B7BA0B35EC
:1003D0009531599A4D04071E5A7613F37183D086CE
:1003E00003A83942AA28E6E4D85DD3D06E6F96FB05
:1003F0005EBC56C25F859BE7AFD23B846AA753C5FC
:100400004449A5F936723D2CD91BA1F54F939D683F
:10041000474116CA2A4CA387D6E5192E77156D7069
:10042000C0DFB20046EDC66C4360922DA922458F15
:100430003455AEA40A6632E0DC02ACE8208C896256
:100440004AFEEEC3E33CF17905E9F62733CCF29E90
:1004500011817E80108A829F480DD7B4FC2FB5C7CA
:10046000DD88146B2B54EA1D945CB0EF1224CDEBA5
:10047000E1E264733F0E5261253EF80F4BECC00081
:1004800030F602493D106E20C9A62FFE2C2B752E8A
:100490004526AB48A980FC04CCD3B5BAA338317D3E
:1004A00001D9A77B96B663694EF7DEE078CA50AAF9
:1004B00041916588E42185DA3A27BE1C3E425E17E9
:1004C000527F1F89246F8F5C67740E12878DE93409
:1004D000ED73C4F8615B05DF594C97798318A45517
:1004E00095EBBD53F5F15766469FB28109518622BF
:1004F00016DD23937629C2D71DD4BF363FEA4B11B0
:1005000032B9625460D66D439A0D929CB0EF586C2C
:100510009D772D70FAF3B30BE2407EF48AE58C3CB4
:100520005671D164E1820ACB131590EC0399AF1494
:100530005D0F334A94A5A8351BE36AC628FF4DE733
:100540002584AC08AEC5A22AB8370C7AA0C3CEADBC
:10055000061A9E8BFBD5D0C11ED0B49BB144F24786
:10056000C768CF72BB4F5AF9DC6BDBD2E87CC8EEB0
:1005700098A1E6D839075FFD8E19B73BBCCD7CE367
:100580008173B211BF6F2098FE7596EF6CDA50E15F
:1005900009725445BA34805BED3E532C87A457F35F
:1005A000333F3CB767B4A325604F076B1B47150F5C
:1005B000E40AEAD1327836498D4BD2BCA5DC1D0D58
:1005C0004DCD9A825FFC9465BEE2F4C91E44CB9E79
:1005D0000C64712663B314E840708A0E19426DAC46
:1005E00088105CDF41A9ADE5FB74CCD5068E598639
:1005F000CE1F3D76E08FB977277BA6D829D3ECB8FC
:1006000013F7FAC3516ADE4A5AEBC28B234892CFE2
:1006100062A899F8D02E856143C8BDF00593CA4EF3
:10062000F17D30FDC469662F08B152F921E67A2BBD
:10063000DD3984FFC091D637D47F2D9B5DA13B6E01
:10064000B5C54604F590EE7E831C0356B6AA001786
:10065000013555790B12BB1A31E7022816C1F6A2F3
:10066000DB189C89683897ABC72AD73AF2C6244C66
:10067000B058A0225E9DD9A7E9AEAF8C959F28B750
:1006800020D7B030C30919C067D6003C7EE7E9F433
:10069000085AF8B82E05A6259E5CD8150DE1F6116E
:1006A000546BCD2146665E84AD06382944C5A2CE82
:1006B000F1AAC1407186B5EFFC36A8CB0A482745A0
:1006C00064A3AF8CB2C69F0789DC17D34979FBFEC0
:1006D0001DD0B9884352BC01782B7D94C70EDEA58E
:1006E000D59BCCF7617AC274813903AB96A037BD34
:1006F0002D72753FC9D48E6FF98DED62DB1CDF045E
:10070000AC1B6C144B63D0BFB482EC7B1A5992D2F1
:100710001060B63D5FE6806E70C4F235D97CEEE5C0
:1007200041A45B50DDBB4CF31F9D5D57555197E3D2
:1007300058424D9C73BAC877316926AEEA8ADA22EC
:10074000B38756FA930B341633E8E453BEA9B13A93
:100750003EF5906ACF3B12FD8F9AA7479199EB0F18
:1007600024FF2318854E7F0CE0A1D2D12C2A4A0207
:100770004F1E95688B98836D76CA6532132FC3829E
:100780009AA4BA8160373435FC80A8516567ED3092
:100790005F10D34A272F13B92AD2CCE1EFAEEBBEBC
:1007A000F4BDCF43B3C58884B7DD3940CE486D9BD7
:1007B00072617EE7A14E532E773BE2C936221B6E53
:1007C00073B103B24C87A9D44D0FD8156CAA18F693
:1007D00049575DFB7A149463A011B09EDE0546C8AC
:1007E000EE47DBDC24899C919729E97BC1071EB881
:1007F000FDFEACC662984FF179E0E86B7856B68D95
:10080000045086CA6F20E6EAE576171C747FBC0D9B
:100810002C85F76696E48B753F4BD938AF7CDA0BA5
:10082000832D3132A2F51D594145BF3C1FF8F98A8D
:10083000D016256912999D2195AB01A6D7B5C07D2B
:10084000FF580E3A92D155E3089FD63E528EFAA336
:10085000C702CDDF8F64198CF3A70C5E0A6A09F01A
:10086000935B42C20623EC71ADB4CBBB7028D51AA2
:100870005C33685A004490A5C4263D2BF25496ADD3
:10088000DA1FED33E18169080D0ADB35779A64D10F
:10089000FC78AA1BD067A0DDFA6C63710584176A27
:1008A000894F667FC65055926FBDE7D240728DBBAF
:1008B000EC06428AE4889D7E7A822713411AAFC8EB
:1008C000A476B4C2FE6D1CD96130B37CEAF7290F5F
:1008D000F23B51C1DE5FE52A2F990B5DA32B4AAB9A
:1008E00095A5D35856EE283100CC1546CAE6863871
:1008F0003C65F5E39FD65B094983702D53A97DE2E2
:10090000C4AC8E5EB825F4B957F3F16847B2A2596A
:1009100020CE34795C900E1EBED52223B1C9186258
:10092000162E913E078FD83F933DD49BDF8521FB48
:10093000117497C7D7DC4C194598E943024BBCC3E7
:10094000049C6BF07552A726F6C5BACFB0B7AE5A65
:10095000A1BF038B80126E0CEBF9C04424EF10F89A
:10096000A88CE87BFF9E2CCD603687B594A6547387
:100970003A144E011DB6FD37484D39CBE032000028
:100980000000000000000000000000000000000067
:100990000000000000000000000000000000000057
:1009A0000000000000000000000000000000000047
:1009B0000000000000000000000000000000000037
:1009C0000000000000000000000000000000000027
:1009D0000000000000000000000000000000000017
:1009E0000000000000000000000000000000000007
:1009F00000000000000000000000000000000000F7
:100A000000000000000000000000000000000000E6
:100A100000000000000000000000000000000000D6
:100A200000000000000000000000000000000000C6
:100A300000000000000000000000000000000000B6
:100A400000000000000000000000000000000000A6
:100A50000000000000000000000000000000000096
:100A60000000000000000000000000000000000086
:100A70000000000000000000000000000000112441
:100A80001FBECFE5D4E0DEBFCDBF10E0A0E6B0E0F2
:100A9000E8E4F1E202C005900D92AE3AB107D9F751
:100AA00011E0AEEAB0E001C01D92A73DB107E1F749
:100AB0000E9464050C94A2100C940000C49A109239
:100AC000AF001092AE0008952F923F924F925F9226
:100AD0006F927F928F929F92AF92BF92CF92DF924E
:100AE000EF92FF920F931F93DF93CF93CDB7DEB7B3
:100AF00063970FB6F894DEBF0FBECDBFBC9ABB9A0A
:100B0000C49A0E940A0E0E94DF0D0E94B80D0E9436
:100B10009A0E0E944E0F8FE58D838FED8E838FE8A6
:100B20008F8318868FEF89878A87F5E04F2E512CA7
:100B30004C0E5D1E80E690E0B20146E650E02EE5E8
:100B400035E00E94E2093E010894611C711CEBE053
:100B50002E2E312C2C0E3D1E7FE5E72E68E0862ED2
:100B6000912CED828FED8E839FE89F831886EFEFA7
:100B7000E987EA87C398F894C3010E94100E78941D
:100B8000892B09F038C2AA24BB24CC24DD24C1015E
:100B900069E070E040E020E00E94C10F892B09F479
:100BA0005CC08E85682F70E041E050E016C0C39AAB
:100BB0002330310509F48EC3243031050CF0D1C146
:100BC0002130310509F482C3223031050CF4B3C35E
:100BD0008985837F89874F5F5F4F9A01215030401D
:100BE000CB01022E02C0959587950A94E2F780FF0B
:100BF000DECF483051057CF38F85682F70E041E0EF
:100C000050E016C0C39A2330310509F467C324307D
:100C100031050CF0B2C12130310509F453C3223043
:100C200031050CF481C389858F7D89874F5F5F4FC4
:100C30009A0121503040CB01022E02C09595879534
:100C40000A94E2F780FFDECF483051057CF38C85B3
:100C500082958F70873009F4B4C20E94E40DBC0104
:100C600041E050E016C02230310509F4B4C1233010
:100C700031050CF043C02115310509F4A4C1213020
:100C8000310509F49CC1403151050CF043C04F5F60
:100C90005F4F9A0121503040CB01022E02C0969541
:100CA00087950A94E2F780FDEECFC39A253031058F
:100CB00009F46FC126303105B4F22830310509F44A
:100CC0007AC1293031055CF42630310509F46EC152
:100CD00027303105C1F60EE1A02EB12CD8CF2A3035
:100CE000310509F45FC12A3031050CF457C12B30AE
:100CF000310549F689858D7F8987C9CF2330310534
:100D000009F465C12430310509F0BDCF9EE1C92E3B
:100D1000D12CBDCF0E94BD0D682F70E041E050E0A6
:100D200016C0C39A2330310509F416C224303105A8
:100D30000CF0D2C02130310509F417C22230310540
:100D40000CF4E4C289858F7E89874F5F5F4F9A01DB
:100D500021503040CB01022E02C0959587950A9410
:100D6000E2F780FFDECF483051057CF3FF2400E03E
:100D700010E00E94A80EBC018F709070892B09F0C2
:100D800060C0023011050CF45CC045E050E00DC0BD
:100D90002430310509F4DBC02530310509F4D2C017
:100DA0004C30510524F54F5F5F4F9A012150304080
:100DB000CB01022E02C0969587950A94E2F780FD3A
:100DC000EFCF2830310509F4C7C02930310504F3CD
:100DD0002A30310509F4B1C02A3031050CF4A8C01D
:100DE0002B303105E9F689858F7E8987C39A0F5F9D
:100DF0001F4F0430110509F0BCCFFF2021F086EA17
:100E00009EE00197F1F78D818A0D8D838E818C0D87
:100E10008E83C2010E94D90982E48A95F1F78091FC
:100E2000AE009091AF0001969093AF008093AE001A
:100E30008091AE009091AF000A970CF492CEC498C6
:100E400090CE41E050E019C02530310509F455C07D
:100E5000263031052CF52130310509F463C02430EA
:100E6000310509F45AC0232B21F5C39AFEE1CF2E98
:100E7000D12CFF24F3944F5F5F4F9A0121503040F3
:100E8000CB01022E02C0969587950A94E2F780FF67
:100E9000DBCF4E3051057CF3FF2009F0A8CFB3CF54
:100EA0002B30310529F12C3031054CF42A30310535
:100EB00071F1FF24F3944E305105ECF2EDCF2C305C
:100EC000310501F12D303105A1F78A858F7E8A87A2
:100ED000C39AFF24F3948BCF2530310509F440C128
:100EE000253031050CF07BC08EE1C82ED12C2DCFE2
:100EF000C39A2EE1A22EB12CBCCF89858B7F898726
:100F0000C39AB7CF8A858F7B8A87C39AB2CFC39A99
:100F100032EEA32E3FEFB32EACCF8A858F7D8A872A
:100F2000C39AA7CFC39AE2EECE2EEFEFDE2EA1CF6B
:100F30008A85877F8A87C39A36CF89858F7D8987FF
:100F4000C39A31CF89858B7F8987C39A2CCF8A85B5
:100F50008F7D8A87C39A27CF89858D7F8987C39A9A
:100F600022CF2530310509F4A9C1253031050CF017
:100F700092C18A858E7F8A872ECE2530310509F46D
:100F8000BDC1253031050CF00BC18A85877F8A876A
:100F90004DCE92EEC92E9FEFD92E79CE8A85877FCE
:100FA0008A8775CE89858F7D898771CE82EEA82E3E
:100FB0008FEFB82E6CCE8A858F7E8A8768CE8A8521
:100FC0008F7D8A8764CE8A858F7B8A8760CE89856C
:100FD0008B7F89875CCE89858F7E898758CE263026
:100FE000310509F4B4C02730310509F0BCCEBEE1AB
:100FF000AB2EB12CBBCE8981682F70E041E050E070
:1010000016C0C39A2330310509F474C12430310568
:101010000CF091C02130310509F474C12230310542
:101020000CF47BC18A858F778A874F5F5F4F9A0167
:1010300021503040C401841B950BFB0102C0F59583
:10104000E7958A95E2F7E0FDDCCF483051056CF377
:101050008A81682F70E041E050E00DC022303105F8
:1010600009F49AC02330310509F492C04830510583
:101070004CF54F5F5F4F9A0121503040C401841BF3
:10108000950BFB0102C0F595E7958A95E2F7E0FF25
:10109000EDCFC39A2430310509F46BC025303105FA
:1010A000ECF22630310509F46CC0263031050CF421
:1010B00064C027303105D1F68D81806C8D838E819F
:1010C000806C8E838B81282F30E02038310514F01E
:1010D000205031408C81E82FF0E0E038F10514F029
:1010E000E050F140C901880F991F820F931F9C01A6
:1010F000220F331F220F331F280F391F220F331FD8
:10110000C90160E570E00E946E105B01CF01880F9D
:10111000991F8E0F9F1F9C01220F331F220F331F19
:10112000280F391F220F331FC90160E570E00E94AC
:101130006E106B012CCD2530310509F4D7C0253058
:1011400031050CF09DC08A858E7F8A876ECFA2EE16
:10115000AA2EAFEFBA2EF9CD89858B7F8987F5CD81
:1011600012EEC12E1FEFD12EF0CD8A858F7B8A879C
:10117000ECCD8F818F618F837CCF8F81807E8F8339
:1011800078CF8D818F738D838E818F738E8371CF96
:1011900089858D7F89876DCF89858F7D898769CF87
:1011A0002630310509F49EC02730310509F04CCDB9
:1011B0008A858F7D8A878C8582958F70873009F02C
:1011C0004CCD8A89FEE18F9F90011124C901805086
:1011D0009F4097FDBAC05C01AA0CAB2CAA1CBB08AF
:1011E0008B8920E830E0281B3109C901880F991F3D
:1011F000820F931F9C01220F331F220F331F280FD2
:10120000391FC901880F991F36FD9CC06C01CC0C99
:10121000CD2CCC1CDD08C50106960D9710F4AA2430
:10122000BB24C60106960D9710F4CC24DD249889C2
:1012300096959695969589892FEF30E0281B310970
:101240003595279535952795359527959E7F4D8121
:101250004F736E816F735F81892F86958695869512
:101260008295880F880F807C842B8D839295990FAF
:10127000907E962B9E8350762E7F522B5F83EDCCF3
:1012800026303105B9F02730310509F0DECE8985E9
:101290008F778987DDCE2630310541F02730310543
:1012A00009F0A7CC8A858D7F8A87A6CC89858F7B1C
:1012B000898791CC8A858D7F8A87B7CE89858F77FC
:1012C000898789CC8A858B7F8A87B0CC8985877E00
:1012D000898781CC89858B7F89877DCC89858D7F26
:1012E0008987A4CC8A858F7B8A87A0CC89858F7BD0
:1012F00089879BCE89858B7F898797CE8A858F7ECC
:101300008A8794CC8A858F7B8A878FCE232B09F09E
:101310002ACD8A858F7E8A8718CD232B09F095CE1A
:101320008A858F7E8A8781CE232B09F08DCC8A8592
:101330008F778A877BCC232B09F05BCC89858F7EC6
:10134000898749CC81589F4F61CFC90181589E4000
:1013500042CF1092D3011092D201880F82B985E456
:1013600086BF78940895882319F485E886BF089588
:1013700085EC86BF0895282F30E070E088E090E08B
:10138000861B970BA90102C0440F551F8A95E2F7EF
:10139000CA0102C0359527956A95E2F7822B089518
:1013A000863008F00895E091B000F091B100099501
:1013B0000895A2EDB0E0FC0186E001900D9281500D
:1013C000E1F708950F931F93182F092F3093B10061
:1013D0002093B000A2EDB0E0FB0186E001900D92F9
:1013E0008150E1F71092C201812F902F9C01D90109
:1013F0002AEF30E08D91F901EE52FF4F80832F5F8D
:101400003F4F81E020303807A9F7DA0120E230E0D1
:101410008D91F901EE52FF4F80832F5F3F4F2632AF
:101420003105B1F7A898A9981092D3011092D20172
:1014300084EA82B985E486BF78941F910F9108955C
:101440002F923F924F925F926F927F928F929F92D4
:10145000AF92BF92CF92DF92EF92FF920F931F93C2
:10146000DF93CF93CDB7DEB76A970FB6F894DEBFA0
:101470000FBECDBF44E5642E40E0742E88249E014B
:10148000295F3F4F388F2F8B3DE0232E312C2C0EC0
:101490003D1E28E0422E512CDE011196F30184916D
:1014A0008D9331964F89588DA417B507C1F780E009
:1014B00090E0FC01EE54FF4FE081F0E0E258FF4F76
:1014C000E491D101A80FB91FEC9301968A309105E0
:1014D00081F7AA88CF8429812A2530E04C2D4770D6
:1014E00050E09E88B988C201841B950BB90102C0E7
:1014F000660F771F8A95E2F7CB0102C035952795D5
:101500004A95E2F7822B89198B258F83EE84DD843F
:101510002A812E2530E04D2D477050E0AC89C20164
:10152000841B950BF90102C0EE0FFF1F8A95E2F7AD
:10153000CF0102C0359527954A95E2F7822B8A198B
:101540008A278887EB892B812E2730E00D89077049
:1015500010E0B201601B710BC901062E02C0880F9A
:10156000991F0A94E2F7002E02C0359527950A9438
:10157000E2F7822B8C198D2589872C812B2530E071
:101580004A2F4770842F90E09A8F898FD888C201A4
:10159000498D5A8D841B950BA90102C0440F551F1C
:1015A0008A95E2F7CA01098C02C0359527950A94FD
:1015B000E2F7822B8D198C258A878D81E826FF24FE
:1015C000E770F0E0C2018E1B9F0B970102C0220F53
:1015D000331F8A95E2F7C90102C0F594E794EA95B2
:1015E000E2F78E298D198B258B878E81A827B0E095
:1015F000AD0102C0440F551F6A95E2F7BA0102C05F
:10160000B595A7950A95E2F76A2B6A1969256C8743
:10161000CE0107966CEB70E046E050E00E9495101A
:10162000009749F0839466E070E0660E771E77E0DD
:10163000871609F031CF282D30E02F5F3F4F522F12
:1016400044278091C000FA01E80FF11DE258FF4FD6
:1016500094912F5F3F4F322F22278091B500F901DF
:10166000E80FF11DE258FF4FE491E927E093C20033
:101670008091BE00FA01E80FF11DE258FF4F9491EE
:101680008091B700F901E80FF11DE258FF4FE49196
:10169000E927E093C3008091C100FA01E80FF11D32
:1016A000E258FF4F94918091B900F901E80FF11DC4
:1016B000E258FF4FE491E927E093C4008091BC0019
:1016C000FA01E80FF11DE258FF4F94918091B400A8
:1016D000F901E80FF11DE258FF4FE491E927E0938B
:1016E000C5008091BD00FA01E80FF11DE258FF4FDF
:1016F00094918091B600F901E80FF11DE258FF4F77
:10170000E491E927E093C6008091BF00FA01E80F59
:10171000F11DE258FF4F94918091BB00F901E80F51
:10172000F11DE258FF4FE491E927E093C700809153
:10173000B200FA01E80FF11DE258FF4F9491809139
:10174000B800F901E80FF11DE258FF4FE491E927D5
:10175000E093C8008091B300FA01E80FF11DE25850
:10176000FF4F94918091BA00F901E80FF11DE25802
:10177000FF4FE491E927E093C9008091BC00FA0192
:10178000E80FF11DE258FF4F94918091B300F901E9
:10179000E80FF11DE258FF4FE491E927E093CA00FA
:1017A0008091C100FA01E80FF11DE258FF4F9491BA
:1017B0008091B600F901E80FF11DE258FF4FE49166
:1017C000E927E093CB008091BF00FA01E80FF11DFB
:1017D000E258FF4F94918091B200F901E80FF11D9A
:1017E000E258FF4FE491E927E093CC008091BE00DE
:1017F000FA01E80FF11DE258FF4F94918091BB0070
:10180000F901E80FF11DE258FF4FE491E927E09359
:10181000CD008091C000FA01E80FF11DE258FF4FA2
:1018200094918091B900F901E80FF11DE258FF4F42
:10183000E491E927E093CE008091BD00FA01E80F22
:10184000F11DE258FF4F94918091BA00F901E80F21
:10185000F11DE258FF4FE491E927E093CF0080911A
:10186000B500FA01E80FF11DE258FF4F9491809105
:10187000B700F901E80FF11DE258FF4FE491E927A5
:10188000E093D0008091B400480F511D42585F4F43
:10189000FA0194918091B800280F311D22583F4FD2
:1018A000F901849189278093D1006A960FB6F89444
:1018B000DEBF0FBECDBFCF91DF911F910F91FF9083
:1018C000EF90DF90CF90BF90AF909F908F907F90E0
:1018D0006F905F904F903F902F900895982F805475
:1018E0008630A0F420E430E049E450E0FA01E21B45
:1018F000F30BD901AE52BF4F8C91EE54FF4F808352
:101900002F5F3F4F2634310589F70895892F86547C
:101910008630C8F4809118018093B5008091190138
:101920008093B40080911A018093B30080911B01D1
:101930008093B20080911C018093C10080911D01B1
:101940008093C0000895892F8C548430B8F480911E
:101950001E018093BF0080911F018093BE00809183
:1019600020018093BD00809121018093BC00892FCC
:1019700090E0860F911D8035910509F008950E9431
:10198000200A08951F920F920FB60F9211242F93E1
:101990003F934F935F936F937F938F939F93AF93F7
:1019A000BF93EF93FF9381B190E0887F907080396F
:1019B000910509F480C08139910514F1803B9105AE
:1019C00009F462C0813B910584F5803A910509F4E0
:1019D00064C0883A910509F457C085E886BFFF9135
:1019E000EF91BF91AF919F918F917F916F915F9197
:1019F0004F913F912F910F900FBE0F901F90189510
:101A00008037910569F081379105B4F180389105EF
:101A100009F451C08838910501F388379105E9F63A
:101A20001092D40185EC86BFDACF803C910509F194
:101A3000883C9105F1F0883B910579F68091C201CF
:101A40008A3A09F449C0E091D201F091D301EE52F3
:101A5000FF4F808183B98091D2019091D30101968B
:101A60009093D3018093D2018091D5018F5F8093B1
:101A7000D50185EC86BFB3CF8036910589F28836D3
:101A8000910509F0AACFCCCF8091D2019091D301DA
:101A90000E94D0091092D501D1CF8091D2019091AE
:101AA000D3012091D5016091D501821B0E946E0C5B
:101AB00085EC86BF94CF8091D401882351F123B166
:101AC0008091C2018A3A89F1E091D201F091D3016B
:101AD000EE52FF4F2083BFCFE091D201F091D301AE
:101AE000EE52FF4F8081E091D201F091D301E77077
:101AF000F070EE53FF4F2081E091D201F091D301BD
:101B0000E770F070E653FF4F9081821B892783B9FD
:101B1000A2CF83B190E09093D3018093D20181E072
:101B20008093D4011092D501A4CF8091D2019091DD
:101B3000D301803F910541F2A091D201B091D30130
:101B4000E091D201F091D301E770F070E653FF4FBE
:101B50008081E091D201F091D301E770F070EE53F3
:101B6000FF4F90818227890FAE52BF4F8C9373CF66
:101B7000D09AD19AD298DA9A0895D89840E020E085
:101B800030E052E4D998852F8A95F1F789B386958C
:101B9000869590E081709070022E02C0880F991F88
:101BA0000A94E2F7482BD99A852F8A95F1F72F5F8F
:101BB0003F4F2830310531F7D89A842F0895D49AB1
:101BC000D59AD698DE9A0895DC9840E050E020E05F
:101BD00030E062E4DD98862F8A95F1F789B382952B
:101BE00086958695837090E081709070022E02C079
:101BF000880F991F0A94E2F7482B592BDD9A862FFC
:101C00008A95F1F72F5F3F4F2031310519F7DC9AA4
:101C1000CA01089583B7816083BF8F98979808950C
:101C20009C018F9A12BE82B78C33E8F38F9812BE54
:101C300082B78431E8F38F9A12BE82B78C33E8F30F
:101C40008F9812BE82B78431E8F38F9A12BE82B7A2
:101C50008C33E8F38F9812BE82B78431E8F38F9A01
:101C600012BE82B78C33E8F38F9812BE82B78431EC
:101C7000E8F38F9A12BE82B78C33E8F38F9812BEC6
:101C800082B78431E8F38F9A12BE82B78C33E8F3BF
:101C90008F9812BE82B78431E8F38F9A12BE82B752
:101CA0008C33E8F38F9812BE82B78431E8F38F9AB1
:101CB00012BE82B78431E8F38F9812BE82B78C339C
:101CC000E8F38F9A12BE82B78431E8F38F9812BE80
:101CD00082B78832E8F3F90120E030E0108240E07A
:101CE00050E012BE879B07C082B7803FD8F320E048
:101CF00030E0C901089512BE879904C082B7803FC1
:101D0000D8F3F5CF9081990F908382B7843278F021
:101D10004F5F5F4F4830510521F72F5F3F4F31969E
:101D200024303105D9F621E030E0C90108959160F1
:101D30009083EECFD79AA298A398A498A598A69836
:101D4000A798AA9AAB9AAC9AAD9AAE9AAF9A089510
:101D50009F92AF92BF92CF92DF92EF92FF920F933A
:101D60001F93DF988AEF90E0FC013197F1F793B26F
:101D700003B3E3B2C3B2A3B263B3DF9A0197F1F73F
:101D8000B3B383B323B343B3E3B3A3B3AA1FAA2765
:101D9000AA1FA295AA0FA07EB695B695B170AB2BDF
:101DA00086958695869590E081709070880F991F32
:101DB000A82B22952F7030E021703070220F331F36
:101DC000220F331FA22B42954695477050E0417079
:101DD0005070440F551F440F551F440F551FA42B1F
:101DE000E295E695E695E370F0E0E170F070E2953B
:101DF000F295F07FFE27E07FFE279A2F9E2B80E052
:101E0000661F6627661F6295660F607E969496949D
:101E100021E09222692906950695069510E0017049
:101E20001070000F111F602BE294EFE0EE22FF24F0
:101E300021E0E222FF24EE0CFF1CEE0CFF1C6E29B9
:101E4000C294C69457E0C522DD2421E0C222DD24DD
:101E5000CC0CDD1CCC0CDD1CCC0CDD1C6C29A29444
:101E6000A694A69433E0A322BB2421E0A222BB24A3
:101E7000A294B29420EFB222BA24A222BA246A29F0
:101E800070E0682B792BCB011F910F91FF90EF90A1
:101E9000DF90CF90BF90AF909F9008958B9A939AC8
:101EA0008A98929A8D9A959A8E9A969A0895AF9258
:101EB000BF92CF92DF92EF92FF921F93CF93DF9367
:101EC0006C015B017A01959885E88A95F1F7141603
:101ED00015060CF03CC0FB0140E050E015E8C1E005
:101EE000D0E0108260E070E0D601A40FB51F1AC0E8
:101EF000939A9698812F8A95F1F7829B0AC09E014A
:101F0000062E02C0220F331F0A94E2F78081822B33
:101F10008083969A812F8A95F1F76F5F7F4F6830A3
:101F2000710561F08C9190E0062E02C09595879521
:101F30000A94E2F780FDDCCF9398DBCF4130510566
:101F4000B9F04F5F5F4F31964E155F0554F2959A89
:101F500085E88A95F1F721E030E0C901DF91CF9162
:101F60001F91FF90EF90DF90CF90BF90AF900895BA
:101F7000D50111968C918F3F21F7959A20E030E0A2
:101F8000ECCFCF92DF92EF92FF920F931F93DF93EC
:101F9000CF93CDB7DEB7ED970FB6F894DEBF0FBE87
:101FA000CDBF8C016B0159E2E52EF12CEC0EFD1E2C
:101FB00085E1F70111928A95E9F781E089A782E42A
:101FC0008AA74CA72DA7C701B801A6010E94570FE9
:101FD000892BB1F08091D6018823B9F021E030E05F
:101FE000C901ED960FB6F894DEBF0FBECDBFCF91FD
:101FF000DF911F910F91FF90EF90DF90CF900895A8
:102000001092D60120E030E0EBCFCE010196DC014A
:10201000E9EAF0E025E001900D922150E1F7B801E6
:1020200045E050E00E94570F892B19F420E030E082
:10203000D7CFCE010E96DC01E0EAF0E029E0019076
:102040000D922150E1F7B80149E050E00E94570F8E
:10205000892B61F3CE014796DC01E7E9F0E029E046
:1020600001900D922150E1F7B80149E050E00E9443
:10207000570F892BD9F2CE018096DC01EEE8F0E013
:1020800029E001900D922150E1F7B80149E050E0BC
:102090000E94570F892B51F2CE010696DC01E6E82B
:1020A000F0E028E001900D922150E1F7B80148E0FE
:1020B00050E00E94570F892B09F4B8CF81E080933C
:1020C000D601C701B801A6010E94570F20E0892B55
:1020D00009F421E081E0282730E082CF97FB092E28
:1020E00007260AD077FD04D00CD006D000201AF4C1
:1020F000709561957F4F0895F6F7909581959F4F64
:102100000895AA1BBB1B51E107C0AA1FBB1FA6173E
:10211000B70710F0A61BB70B881F991F5A95A9F790
:1021200080959095BC01CD010895FB01DC0104C0B0
:102130008D910190801921F441505040C8F7881BBF
:08214000990B0895F894FFCFFC
:102148000000A420010100000000000000000000C1
:102158000000000000000000000000000000000077
:1021680000000000000001430000FFFFFFFF014FD7
:1021780000FFFF03000000014D000001FFFFFFFF0B
:0E2188000144000103000000000143000100BB
:00000001FF
